{
  "_format": "hh-sol-artifact-1",
  "contractName": "Domains",
  "sourceName": "contracts/Domains.sol",
  "abi": [
    {
      "inputs": [
        {
          "internalType": "string",
          "name": "_tld",
          "type": "string"
        }
      ],
      "stateMutability": "payable",
      "type": "constructor"
    },
    {
      "anonymous": false,
      "inputs": [
        {
          "indexed": true,
          "internalType": "address",
          "name": "owner",
          "type": "address"
        },
        {
          "indexed": true,
          "internalType": "address",
          "name": "approved",
          "type": "address"
        },
        {
          "indexed": true,
          "internalType": "uint256",
          "name": "tokenId",
          "type": "uint256"
        }
      ],
      "name": "Approval",
      "type": "event"
    },
    {
      "anonymous": false,
      "inputs": [
        {
          "indexed": true,
          "internalType": "address",
          "name": "owner",
          "type": "address"
        },
        {
          "indexed": true,
          "internalType": "address",
          "name": "operator",
          "type": "address"
        },
        {
          "indexed": false,
          "internalType": "bool",
          "name": "approved",
          "type": "bool"
        }
      ],
      "name": "ApprovalForAll",
      "type": "event"
    },
    {
      "anonymous": false,
      "inputs": [
        {
          "indexed": true,
          "internalType": "address",
          "name": "from",
          "type": "address"
        },
        {
          "indexed": true,
          "internalType": "address",
          "name": "to",
          "type": "address"
        },
        {
          "indexed": true,
          "internalType": "uint256",
          "name": "tokenId",
          "type": "uint256"
        }
      ],
      "name": "Transfer",
      "type": "event"
    },
    {
      "inputs": [
        {
          "internalType": "address",
          "name": "to",
          "type": "address"
        },
        {
          "internalType": "uint256",
          "name": "tokenId",
          "type": "uint256"
        }
      ],
      "name": "approve",
      "outputs": [],
      "stateMutability": "nonpayable",
      "type": "function"
    },
    {
      "inputs": [
        {
          "internalType": "address",
          "name": "owner",
          "type": "address"
        }
      ],
      "name": "balanceOf",
      "outputs": [
        {
          "internalType": "uint256",
          "name": "",
          "type": "uint256"
        }
      ],
      "stateMutability": "view",
      "type": "function"
    },
    {
      "inputs": [
        {
          "internalType": "string",
          "name": "",
          "type": "string"
        }
      ],
      "name": "domains",
      "outputs": [
        {
          "internalType": "address",
          "name": "",
          "type": "address"
        }
      ],
      "stateMutability": "view",
      "type": "function"
    },
    {
      "inputs": [
        {
          "internalType": "uint256",
          "name": "tokenId",
          "type": "uint256"
        }
      ],
      "name": "getApproved",
      "outputs": [
        {
          "internalType": "address",
          "name": "",
          "type": "address"
        }
      ],
      "stateMutability": "view",
      "type": "function"
    },
    {
      "inputs": [
        {
          "internalType": "string",
          "name": "_name",
          "type": "string"
        }
      ],
      "name": "getOwner",
      "outputs": [
        {
          "internalType": "address",
          "name": "",
          "type": "address"
        }
      ],
      "stateMutability": "view",
      "type": "function"
    },
    {
      "inputs": [
        {
          "internalType": "string",
          "name": "_name",
          "type": "string"
        }
      ],
      "name": "getPrice",
      "outputs": [
        {
          "internalType": "uint256",
          "name": "",
          "type": "uint256"
        }
      ],
      "stateMutability": "pure",
      "type": "function"
    },
    {
      "inputs": [
        {
          "internalType": "string",
          "name": "_name",
          "type": "string"
        }
      ],
      "name": "getRecord",
      "outputs": [
        {
          "internalType": "string",
          "name": "",
          "type": "string"
        }
      ],
      "stateMutability": "view",
      "type": "function"
    },
    {
      "inputs": [
        {
          "internalType": "address",
          "name": "owner",
          "type": "address"
        },
        {
          "internalType": "address",
          "name": "operator",
          "type": "address"
        }
      ],
      "name": "isApprovedForAll",
      "outputs": [
        {
          "internalType": "bool",
          "name": "",
          "type": "bool"
        }
      ],
      "stateMutability": "view",
      "type": "function"
    },
    {
      "inputs": [],
      "name": "name",
      "outputs": [
        {
          "internalType": "string",
          "name": "",
          "type": "string"
        }
      ],
      "stateMutability": "view",
      "type": "function"
    },
    {
      "inputs": [
        {
          "internalType": "uint256",
          "name": "tokenId",
          "type": "uint256"
        }
      ],
      "name": "ownerOf",
      "outputs": [
        {
          "internalType": "address",
          "name": "",
          "type": "address"
        }
      ],
      "stateMutability": "view",
      "type": "function"
    },
    {
      "inputs": [
        {
          "internalType": "string",
          "name": "",
          "type": "string"
        }
      ],
      "name": "records",
      "outputs": [
        {
          "internalType": "string",
          "name": "",
          "type": "string"
        }
      ],
      "stateMutability": "view",
      "type": "function"
    },
    {
      "inputs": [
        {
          "internalType": "string",
          "name": "_name",
          "type": "string"
        }
      ],
      "name": "register",
      "outputs": [],
      "stateMutability": "payable",
      "type": "function"
    },
    {
      "inputs": [
        {
          "internalType": "address",
          "name": "from",
          "type": "address"
        },
        {
          "internalType": "address",
          "name": "to",
          "type": "address"
        },
        {
          "internalType": "uint256",
          "name": "tokenId",
          "type": "uint256"
        }
      ],
      "name": "safeTransferFrom",
      "outputs": [],
      "stateMutability": "nonpayable",
      "type": "function"
    },
    {
      "inputs": [
        {
          "internalType": "address",
          "name": "from",
          "type": "address"
        },
        {
          "internalType": "address",
          "name": "to",
          "type": "address"
        },
        {
          "internalType": "uint256",
          "name": "tokenId",
          "type": "uint256"
        },
        {
          "internalType": "bytes",
          "name": "_data",
          "type": "bytes"
        }
      ],
      "name": "safeTransferFrom",
      "outputs": [],
      "stateMutability": "nonpayable",
      "type": "function"
    },
    {
      "inputs": [
        {
          "internalType": "address",
          "name": "operator",
          "type": "address"
        },
        {
          "internalType": "bool",
          "name": "approved",
          "type": "bool"
        }
      ],
      "name": "setApprovalForAll",
      "outputs": [],
      "stateMutability": "nonpayable",
      "type": "function"
    },
    {
      "inputs": [
        {
          "internalType": "string",
          "name": "_name",
          "type": "string"
        },
        {
          "internalType": "string",
          "name": "_record",
          "type": "string"
        }
      ],
      "name": "setRecord",
      "outputs": [],
      "stateMutability": "nonpayable",
      "type": "function"
    },
    {
      "inputs": [
        {
          "internalType": "bytes4",
          "name": "interfaceId",
          "type": "bytes4"
        }
      ],
      "name": "supportsInterface",
      "outputs": [
        {
          "internalType": "bool",
          "name": "",
          "type": "bool"
        }
      ],
      "stateMutability": "view",
      "type": "function"
    },
    {
      "inputs": [],
      "name": "symbol",
      "outputs": [
        {
          "internalType": "string",
          "name": "",
          "type": "string"
        }
      ],
      "stateMutability": "view",
      "type": "function"
    },
    {
      "inputs": [],
      "name": "tld",
      "outputs": [
        {
          "internalType": "string",
          "name": "",
          "type": "string"
        }
      ],
      "stateMutability": "view",
      "type": "function"
    },
    {
      "inputs": [
        {
          "internalType": "uint256",
          "name": "tokenId",
          "type": "uint256"
        }
      ],
      "name": "tokenURI",
      "outputs": [
        {
          "internalType": "string",
          "name": "",
          "type": "string"
        }
      ],
      "stateMutability": "view",
      "type": "function"
    },
    {
      "inputs": [
        {
          "internalType": "address",
          "name": "from",
          "type": "address"
        },
        {
          "internalType": "address",
          "name": "to",
          "type": "address"
        },
        {
          "internalType": "uint256",
          "name": "tokenId",
          "type": "uint256"
        }
      ],
      "name": "transferFrom",
      "outputs": [],
      "stateMutability": "nonpayable",
      "type": "function"
    }
  ],
  "bytecode": "0x6080604052604051806108a0016040528061086b815260200162004bca61086b9139600990805190602001906200003892919062000287565b506040518060400160405280600d81526020017f3c2f746578743e3c2f7376673e00000000000000000000000000000000000000815250600a90805190602001906200008692919062000287565b5060405162005435380380620054358339818101604052810190620000ac9190620004d4565b6040518060400160405280601281526020017f48656c6c6f204e616d65205365727669636500000000000000000000000000008152506040518060400160405280600581526020017f48454c4c4f00000000000000000000000000000000000000000000000000000081525081600090805190602001906200013092919062000287565b5080600190805190602001906200014992919062000287565b50505080600890805190602001906200016492919062000287565b50620001b16040518060400160405280601881526020017f2573206e616d652073657276696365206465706c6f796564000000000000000081525082620001b860201b6200157c1760201c565b5062000622565b6200025a8282604051602401620001d192919062000582565b6040516020818303038152906040527f4b5c4277000000000000000000000000000000000000000000000000000000007bffffffffffffffffffffffffffffffffffffffffffffffffffffffff19166020820180517bffffffffffffffffffffffffffffffffffffffffffffffffffffffff83818316178352505050506200025e60201b60201c565b5050565b60008151905060006a636f6e736f6c652e6c6f679050602083016000808483855afa5050505050565b8280546200029590620005ec565b90600052602060002090601f016020900481019282620002b9576000855562000305565b82601f10620002d457805160ff191683800117855562000305565b8280016001018555821562000305579182015b8281111562000304578251825591602001919060010190620002e7565b5b50905062000314919062000318565b5090565b5b808211156200033357600081600090555060010162000319565b5090565b6000604051905090565b600080fd5b600080fd5b600080fd5b600080fd5b6000601f19601f8301169050919050565b7f4e487b7100000000000000000000000000000000000000000000000000000000600052604160045260246000fd5b620003a08262000355565b810181811067ffffffffffffffff82111715620003c257620003c162000366565b5b80604052505050565b6000620003d762000337565b9050620003e5828262000395565b919050565b600067ffffffffffffffff82111562000408576200040762000366565b5b620004138262000355565b9050602081019050919050565b60005b838110156200044057808201518184015260208101905062000423565b8381111562000450576000848401525b50505050565b60006200046d6200046784620003ea565b620003cb565b9050828152602081018484840111156200048c576200048b62000350565b5b6200049984828562000420565b509392505050565b600082601f830112620004b957620004b86200034b565b5b8151620004cb84826020860162000456565b91505092915050565b600060208284031215620004ed57620004ec62000341565b5b600082015167ffffffffffffffff8111156200050e576200050d62000346565b5b6200051c84828501620004a1565b91505092915050565b600081519050919050565b600082825260208201905092915050565b60006200054e8262000525565b6200055a818562000530565b93506200056c81856020860162000420565b620005778162000355565b840191505092915050565b600060408201905081810360008301526200059e818562000541565b90508181036020830152620005b4818462000541565b90509392505050565b7f4e487b7100000000000000000000000000000000000000000000000000000000600052602260045260246000fd5b600060028204905060018216806200060557607f821691505b602082108114156200061c576200061b620005bd565b5b50919050565b61459880620006326000396000f3fe60806040526004361061012a5760003560e01c8063524f3889116100ab578063a22cb4651161006f578063a22cb46514610450578063b88d4fde14610479578063c1880a98146104a2578063c87b56dd146104cb578063e985e9c514610508578063f2c298be146105455761012a565b8063524f388914610331578063541e771d1461036e5780636352211e146103ab57806370a08231146103e857806395d89b41146104255761012a565b806323b872dd116100f257806323b872dd1461023a57806326449235146102635780632d551432146102a057806342842e0e146102cb5780634aaf4a12146102f45761012a565b806301ffc9a71461012f57806306fdde031461016c578063081812fc14610197578063095ea7b3146101d457806311dd8845146101fd575b600080fd5b34801561013b57600080fd5b5061015660048036038101906101519190612a5b565b610561565b6040516101639190612aa3565b60405180910390f35b34801561017857600080fd5b50610181610643565b60405161018e9190612b57565b60405180910390f35b3480156101a357600080fd5b506101be60048036038101906101b99190612baf565b6106d5565b6040516101cb9190612c1d565b60405180910390f35b3480156101e057600080fd5b506101fb60048036038101906101f69190612c64565b61075a565b005b34801561020957600080fd5b50610224600480360381019061021f9190612d09565b610872565b6040516102319190612b57565b60405180910390f35b34801561024657600080fd5b50610261600480360381019061025c9190612d56565b610925565b005b34801561026f57600080fd5b5061028a60048036038101906102859190612ed9565b610985565b6040516102979190612c1d565b60405180910390f35b3480156102ac57600080fd5b506102b56109ce565b6040516102c29190612b57565b60405180910390f35b3480156102d757600080fd5b506102f260048036038101906102ed9190612d56565b610a5c565b005b34801561030057600080fd5b5061031b60048036038101906103169190612d09565b610a7c565b6040516103289190612c1d565b60405180910390f35b34801561033d57600080fd5b5061035860048036038101906103539190612d09565b610ac7565b6040516103659190612f31565b60405180910390f35b34801561037a57600080fd5b5061039560048036038101906103909190612ed9565b610bbd565b6040516103a29190612b57565b60405180910390f35b3480156103b757600080fd5b506103d260048036038101906103cd9190612baf565b610c73565b6040516103df9190612c1d565b60405180910390f35b3480156103f457600080fd5b5061040f600480360381019061040a9190612f4c565b610d25565b60405161041c9190612f31565b60405180910390f35b34801561043157600080fd5b5061043a610ddd565b6040516104479190612b57565b60405180910390f35b34801561045c57600080fd5b5061047760048036038101906104729190612fa5565b610e6f565b005b34801561048557600080fd5b506104a0600480360381019061049b9190613086565b610e85565b005b3480156104ae57600080fd5b506104c960048036038101906104c49190613109565b610ee7565b005b3480156104d757600080fd5b506104f260048036038101906104ed9190612baf565b610fcb565b6040516104ff9190612b57565b60405180910390f35b34801561051457600080fd5b5061052f600480360381019061052a919061318a565b61111d565b60405161053c9190612aa3565b60405180910390f35b61055f600480360381019061055a9190612d09565b6111b1565b005b60007f80ac58cd000000000000000000000000000000000000000000000000000000007bffffffffffffffffffffffffffffffffffffffffffffffffffffffff1916827bffffffffffffffffffffffffffffffffffffffffffffffffffffffff1916148061062c57507f5b5e139f000000000000000000000000000000000000000000000000000000007bffffffffffffffffffffffffffffffffffffffffffffffffffffffff1916827bffffffffffffffffffffffffffffffffffffffffffffffffffffffff1916145b8061063c575061063b82611618565b5b9050919050565b606060008054610652906131f9565b80601f016020809104026020016040519081016040528092919081815260200182805461067e906131f9565b80156106cb5780601f106106a0576101008083540402835291602001916106cb565b820191906000526020600020905b8154815290600101906020018083116106ae57829003601f168201915b5050505050905090565b60006106e082611682565b61071f576040517f08c379a00000000000000000000000000000000000000000000000000000000081526004016107169061329d565b60405180910390fd5b6004600083815260200190815260200160002060009054906101000a900473ffffffffffffffffffffffffffffffffffffffff169050919050565b600061076582610c73565b90508073ffffffffffffffffffffffffffffffffffffffff168373ffffffffffffffffffffffffffffffffffffffff1614156107d6576040517f08c379a00000000000000000000000000000000000000000000000000000000081526004016107cd9061332f565b60405180910390fd5b8073ffffffffffffffffffffffffffffffffffffffff166107f56116ee565b73ffffffffffffffffffffffffffffffffffffffff16148061082457506108238161081e6116ee565b61111d565b5b610863576040517f08c379a000000000000000000000000000000000000000000000000000000000815260040161085a906133c1565b60405180910390fd5b61086d83836116f6565b505050565b6060600c8383604051610886929190613411565b9081526020016040518091039020805461089f906131f9565b80601f01602080910402602001604051908101604052809291908181526020018280546108cb906131f9565b80156109185780601f106108ed57610100808354040283529160200191610918565b820191906000526020600020905b8154815290600101906020018083116108fb57829003601f168201915b5050505050905092915050565b6109366109306116ee565b826117af565b610975576040517f08c379a000000000000000000000000000000000000000000000000000000000815260040161096c9061349c565b60405180910390fd5b61098083838361188d565b505050565b600b818051602081018201805184825260208301602085012081835280955050505050506000915054906101000a900473ffffffffffffffffffffffffffffffffffffffff1681565b600880546109db906131f9565b80601f0160208091040260200160405190810160405280929190818152602001828054610a07906131f9565b8015610a545780601f10610a2957610100808354040283529160200191610a54565b820191906000526020600020905b815481529060010190602001808311610a3757829003601f168201915b505050505081565b610a7783838360405180602001604052806000815250610e85565b505050565b6000600b8383604051610a90929190613411565b908152602001604051809103902060009054906101000a900473ffffffffffffffffffffffffffffffffffffffff16905092915050565b600080610b1784848080601f016020809104026020016040519081016040528093929190818152602001838380828437600081840152601f19601f82011690508083019250505050505050611af4565b905060008111610b5c576040517f08c379a0000000000000000000000000000000000000000000000000000000008152600401610b5390613508565b60405180910390fd5b6002811415610b7657670b1a2bc2ec500000915050610bb7565b6003811415610b90576706f05b59d3b20000915050610bb7565b6004811415610baa57670429d069189e0000915050610bb7565b67016345785d8a00009150505b92915050565b600c818051602081018201805184825260208301602085012081835280955050505050506000915090508054610bf2906131f9565b80601f0160208091040260200160405190810160405280929190818152602001828054610c1e906131f9565b8015610c6b5780601f10610c4057610100808354040283529160200191610c6b565b820191906000526020600020905b815481529060010190602001808311610c4e57829003601f168201915b505050505081565b6000806002600084815260200190815260200160002060009054906101000a900473ffffffffffffffffffffffffffffffffffffffff169050600073ffffffffffffffffffffffffffffffffffffffff168173ffffffffffffffffffffffffffffffffffffffff161415610d1c576040517f08c379a0000000000000000000000000000000000000000000000000000000008152600401610d139061359a565b60405180910390fd5b80915050919050565b60008073ffffffffffffffffffffffffffffffffffffffff168273ffffffffffffffffffffffffffffffffffffffff161415610d96576040517f08c379a0000000000000000000000000000000000000000000000000000000008152600401610d8d9061362c565b60405180910390fd5b600360008373ffffffffffffffffffffffffffffffffffffffff1673ffffffffffffffffffffffffffffffffffffffff168152602001908152602001600020549050919050565b606060018054610dec906131f9565b80601f0160208091040260200160405190810160405280929190818152602001828054610e18906131f9565b8015610e655780601f10610e3a57610100808354040283529160200191610e65565b820191906000526020600020905b815481529060010190602001808311610e4857829003601f168201915b5050505050905090565b610e81610e7a6116ee565b8383611ca9565b5050565b610e96610e906116ee565b836117af565b610ed5576040517f08c379a0000000000000000000000000000000000000000000000000000000008152600401610ecc9061349c565b60405180910390fd5b610ee184848484611e16565b50505050565b3373ffffffffffffffffffffffffffffffffffffffff16600b8585604051610f10929190613411565b908152602001604051809103902060009054906101000a900473ffffffffffffffffffffffffffffffffffffffff1673ffffffffffffffffffffffffffffffffffffffff1614610f95576040517f08c379a0000000000000000000000000000000000000000000000000000000008152600401610f8c906136be565b60405180910390fd5b8181600c8686604051610fa9929190613411565b90815260200160405180910390209190610fc49291906128c6565b5050505050565b6060610fd682611682565b611015576040517f08c379a000000000000000000000000000000000000000000000000000000000815260040161100c90613750565b60405180910390fd5b6000600660008481526020019081526020016000208054611035906131f9565b80601f0160208091040260200160405190810160405280929190818152602001828054611061906131f9565b80156110ae5780601f10611083576101008083540402835291602001916110ae565b820191906000526020600020905b81548152906001019060200180831161109157829003601f168201915b5050505050905060006110bf611e72565b90506000815114156110d5578192505050611118565b60008251111561110a5780826040516020016110f29291906137a1565b60405160208183030381529060405292505050611118565b61111384611e89565b925050505b919050565b6000600560008473ffffffffffffffffffffffffffffffffffffffff1673ffffffffffffffffffffffffffffffffffffffff16815260200190815260200160002060008373ffffffffffffffffffffffffffffffffffffffff1673ffffffffffffffffffffffffffffffffffffffff16815260200190815260200160002060009054906101000a900460ff16905092915050565b600073ffffffffffffffffffffffffffffffffffffffff16600b83836040516111db929190613411565b908152602001604051809103902060009054906101000a900473ffffffffffffffffffffffffffffffffffffffff1673ffffffffffffffffffffffffffffffffffffffff1614611260576040517f08c379a000000000000000000000000000000000000000000000000000000000815260040161125790613811565b60405180910390fd5b600061126c8383610ac7565b9050803410156112b1576040517f08c379a00000000000000000000000000000000000000000000000000000000081526004016112a89061387d565b60405180910390fd5b6000838360086040516020016112c99392919061397d565b60405160208183030381529060405290506000600982600a6040516020016112f3939291906139ae565b604051602081830303815290604052905060006113106007611f30565b9050600061136187878080601f016020809104026020016040519081016040528093929190818152602001838380828437600081840152601f19601f82011690508083019250505050505050611af4565b9050600061136e82611f3e565b90506113d76040518060600160405280602f8152602001614534602f913989898080601f016020809104026020016040519081016040528093929190818152602001838380828437600081840152601f19601f820116905080830192505050505050508561209f565b600061140d866113e68761213e565b846040516020016113f993929190613b5b565b60405160208183030381529060405261213e565b90506000816040516020016114229190613c04565b6040516020818303038152906040529050611454604051806060016040528060398152602001614482603991396122d6565b6114936040518060400160405280600e81526020017f46696e616c20746f6b656e5552490000000000000000000000000000000000008152508261157c565b6114b46040518060600160405280603981526020016144bb603991396122d6565b6114be338661236f565b6114c8858261238d565b33600b8b8b6040516114db929190613411565b908152602001604051809103902060006101000a81548173ffffffffffffffffffffffffffffffffffffffff021916908373ffffffffffffffffffffffffffffffffffffffff1602179055506115666040518060400160405280601a81526020017f2573206861732072656769737465726564206120646f6d61696e00000000000081525033612401565b611570600761249d565b50505050505050505050565b6116148282604051602401611592929190613c26565b6040516020818303038152906040527f4b5c4277000000000000000000000000000000000000000000000000000000007bffffffffffffffffffffffffffffffffffffffffffffffffffffffff19166020820180517bffffffffffffffffffffffffffffffffffffffffffffffffffffffff83818316178352505050506124b3565b5050565b60007f01ffc9a7000000000000000000000000000000000000000000000000000000007bffffffffffffffffffffffffffffffffffffffffffffffffffffffff1916827bffffffffffffffffffffffffffffffffffffffffffffffffffffffff1916149050919050565b60008073ffffffffffffffffffffffffffffffffffffffff166002600084815260200190815260200160002060009054906101000a900473ffffffffffffffffffffffffffffffffffffffff1673ffffffffffffffffffffffffffffffffffffffff1614159050919050565b600033905090565b816004600083815260200190815260200160002060006101000a81548173ffffffffffffffffffffffffffffffffffffffff021916908373ffffffffffffffffffffffffffffffffffffffff160217905550808273ffffffffffffffffffffffffffffffffffffffff1661176983610c73565b73ffffffffffffffffffffffffffffffffffffffff167f8c5be1e5ebec7d5bd14f71427d1e84f3dd0314c0f7b2291e5b200ac8c7c3b92560405160405180910390a45050565b60006117ba82611682565b6117f9576040517f08c379a00000000000000000000000000000000000000000000000000000000081526004016117f090613ccf565b60405180910390fd5b600061180483610c73565b90508073ffffffffffffffffffffffffffffffffffffffff168473ffffffffffffffffffffffffffffffffffffffff16148061187357508373ffffffffffffffffffffffffffffffffffffffff1661185b846106d5565b73ffffffffffffffffffffffffffffffffffffffff16145b806118845750611883818561111d565b5b91505092915050565b8273ffffffffffffffffffffffffffffffffffffffff166118ad82610c73565b73ffffffffffffffffffffffffffffffffffffffff1614611903576040517f08c379a00000000000000000000000000000000000000000000000000000000081526004016118fa90613d61565b60405180910390fd5b600073ffffffffffffffffffffffffffffffffffffffff168273ffffffffffffffffffffffffffffffffffffffff161415611973576040517f08c379a000000000000000000000000000000000000000000000000000000000815260040161196a90613df3565b60405180910390fd5b61197e8383836124dc565b6119896000826116f6565b6001600360008573ffffffffffffffffffffffffffffffffffffffff1673ffffffffffffffffffffffffffffffffffffffff16815260200190815260200160002060008282546119d99190613e42565b925050819055506001600360008473ffffffffffffffffffffffffffffffffffffffff1673ffffffffffffffffffffffffffffffffffffffff1681526020019081526020016000206000828254611a309190613e76565b92505081905550816002600083815260200190815260200160002060006101000a81548173ffffffffffffffffffffffffffffffffffffffff021916908373ffffffffffffffffffffffffffffffffffffffff160217905550808273ffffffffffffffffffffffffffffffffffffffff168473ffffffffffffffffffffffffffffffffffffffff167fddf252ad1be2c89b69c2b068fc378daa952ba7f163c4a11628f55a4df523b3ef60405160405180910390a4611aef8383836124e1565b505050565b60008060008084519050600092505b80821015611c9e576000858381518110611b2057611b1f613ecc565b5b602001015160f81c60f81b9050608060f81b817effffffffffffffffffffffffffffffffffffffffffffffffffffffffffffff19161015611b6f57600183611b689190613e76565b9250611c8a565b60e060f81b817effffffffffffffffffffffffffffffffffffffffffffffffffffffffffffff19161015611bb157600283611baa9190613e76565b9250611c89565b60f060f81b817effffffffffffffffffffffffffffffffffffffffffffffffffffffffffffff19161015611bf357600383611bec9190613e76565b9250611c88565b60f8801b817effffffffffffffffffffffffffffffffffffffffffffffffffffffffffffff19161015611c3457600483611c2d9190613e76565b9250611c87565b60fc60f81b817effffffffffffffffffffffffffffffffffffffffffffffffffffffffffffff19161015611c7657600583611c6f9190613e76565b9250611c86565b600683611c839190613e76565b92505b5b5b5b5b508280611c9690613efb565b935050611b03565b829350505050919050565b8173ffffffffffffffffffffffffffffffffffffffff168373ffffffffffffffffffffffffffffffffffffffff161415611d18576040517f08c379a0000000000000000000000000000000000000000000000000000000008152600401611d0f90613f90565b60405180910390fd5b80600560008573ffffffffffffffffffffffffffffffffffffffff1673ffffffffffffffffffffffffffffffffffffffff16815260200190815260200160002060008473ffffffffffffffffffffffffffffffffffffffff1673ffffffffffffffffffffffffffffffffffffffff16815260200190815260200160002060006101000a81548160ff0219169083151502179055508173ffffffffffffffffffffffffffffffffffffffff168373ffffffffffffffffffffffffffffffffffffffff167f17307eab39ab6107e8899845ad3d59bd9653f200f220920489ca2b5937696c3183604051611e099190612aa3565b60405180910390a3505050565b611e2184848461188d565b611e2d848484846124e6565b611e6c576040517f08c379a0000000000000000000000000000000000000000000000000000000008152600401611e6390614022565b60405180910390fd5b50505050565b606060405180602001604052806000815250905090565b6060611e9482611682565b611ed3576040517f08c379a0000000000000000000000000000000000000000000000000000000008152600401611eca906140b4565b60405180910390fd5b6000611edd611e72565b90506000815111611efd5760405180602001604052806000815250611f28565b80611f0784611f3e565b604051602001611f189291906137a1565b6040516020818303038152906040525b915050919050565b600081600001549050919050565b60606000821415611f86576040518060400160405280600181526020017f3000000000000000000000000000000000000000000000000000000000000000815250905061209a565b600082905060005b60008214611fb8578080611fa190613efb565b915050600a82611fb19190614103565b9150611f8e565b60008167ffffffffffffffff811115611fd457611fd3612dae565b5b6040519080825280601f01601f1916602001820160405280156120065781602001600182028036833780820191505090505b5090505b600085146120935760018261201f9190613e42565b9150600a8561202e9190614134565b603061203a9190613e76565b60f81b8183815181106120505761204f613ecc565b5b60200101907effffffffffffffffffffffffffffffffffffffffffffffffffffffffffffff1916908160001a905350600a8561208c9190614103565b945061200a565b8093505050505b919050565b6121398383836040516024016120b793929190614165565b6040516020818303038152906040527ff362ca59000000000000000000000000000000000000000000000000000000007bffffffffffffffffffffffffffffffffffffffffffffffffffffffff19166020820180517bffffffffffffffffffffffffffffffffffffffffffffffffffffffff83818316178352505050506124b3565b505050565b6060600082519050600081141561216757604051806020016040528060008152509150506122d1565b600060036002836121789190613e76565b6121829190614103565b600461218e91906141aa565b9050600060208261219f9190613e76565b67ffffffffffffffff8111156121b8576121b7612dae565b5b6040519080825280601f01601f1916602001820160405280156121ea5781602001600182028036833780820191505090505b50905060006040518060600160405280604081526020016144f4604091399050600181016020830160005b8681101561228e5760038101905062ffffff818a015116603f8160121c168401518060081b905060ff603f83600c1c1686015116810190508060081b905060ff603f8360061c1686015116810190508060081b905060ff603f831686015116810190508060e01b90508084526004840193505050612215565b5060038606600181146122a857600281146122b8576122c3565b613d3d60f01b60028303526122c3565b603d60f81b60018303525b508484525050819450505050505b919050565b61236c816040516024016122ea9190612b57565b6040516020818303038152906040527f41304fac000000000000000000000000000000000000000000000000000000007bffffffffffffffffffffffffffffffffffffffffffffffffffffffff19166020820180517bffffffffffffffffffffffffffffffffffffffffffffffffffffffff83818316178352505050506124b3565b50565b61238982826040518060200160405280600081525061266e565b5050565b61239682611682565b6123d5576040517f08c379a00000000000000000000000000000000000000000000000000000000081526004016123cc90614276565b60405180910390fd5b806006600084815260200190815260200160002090805190602001906123fc92919061294c565b505050565b6124998282604051602401612417929190614296565b6040516020818303038152906040527f319af333000000000000000000000000000000000000000000000000000000007bffffffffffffffffffffffffffffffffffffffffffffffffffffffff19166020820180517bffffffffffffffffffffffffffffffffffffffffffffffffffffffff83818316178352505050506124b3565b5050565b6001816000016000828254019250508190555050565b60008151905060006a636f6e736f6c652e6c6f679050602083016000808483855afa5050505050565b505050565b505050565b60006125078473ffffffffffffffffffffffffffffffffffffffff166126c9565b15612661578373ffffffffffffffffffffffffffffffffffffffff1663150b7a026125306116ee565b8786866040518563ffffffff1660e01b8152600401612552949392919061431b565b6020604051808303816000875af192505050801561258e57506040513d601f19601f8201168201806040525081019061258b919061437c565b60015b612611573d80600081146125be576040519150601f19603f3d011682016040523d82523d6000602084013e6125c3565b606091505b50600081511415612609576040517f08c379a000000000000000000000000000000000000000000000000000000000815260040161260090614022565b60405180910390fd5b805181602001fd5b63150b7a0260e01b7bffffffffffffffffffffffffffffffffffffffffffffffffffffffff1916817bffffffffffffffffffffffffffffffffffffffffffffffffffffffff191614915050612666565b600190505b949350505050565b61267883836126ec565b61268560008484846124e6565b6126c4576040517f08c379a00000000000000000000000000000000000000000000000000000000081526004016126bb90614022565b60405180910390fd5b505050565b6000808273ffffffffffffffffffffffffffffffffffffffff163b119050919050565b600073ffffffffffffffffffffffffffffffffffffffff168273ffffffffffffffffffffffffffffffffffffffff16141561275c576040517f08c379a0000000000000000000000000000000000000000000000000000000008152600401612753906143f5565b60405180910390fd5b61276581611682565b156127a5576040517f08c379a000000000000000000000000000000000000000000000000000000000815260040161279c90614461565b60405180910390fd5b6127b1600083836124dc565b6001600360008473ffffffffffffffffffffffffffffffffffffffff1673ffffffffffffffffffffffffffffffffffffffff16815260200190815260200160002060008282546128019190613e76565b92505081905550816002600083815260200190815260200160002060006101000a81548173ffffffffffffffffffffffffffffffffffffffff021916908373ffffffffffffffffffffffffffffffffffffffff160217905550808273ffffffffffffffffffffffffffffffffffffffff16600073ffffffffffffffffffffffffffffffffffffffff167fddf252ad1be2c89b69c2b068fc378daa952ba7f163c4a11628f55a4df523b3ef60405160405180910390a46128c2600083836124e1565b5050565b8280546128d2906131f9565b90600052602060002090601f0160209004810192826128f4576000855561293b565b82601f1061290d57803560ff191683800117855561293b565b8280016001018555821561293b579182015b8281111561293a57823582559160200191906001019061291f565b5b50905061294891906129d2565b5090565b828054612958906131f9565b90600052602060002090601f01602090048101928261297a57600085556129c1565b82601f1061299357805160ff19168380011785556129c1565b828001600101855582156129c1579182015b828111156129c05782518255916020019190600101906129a5565b5b5090506129ce91906129d2565b5090565b5b808211156129eb5760008160009055506001016129d3565b5090565b6000604051905090565b600080fd5b600080fd5b60007fffffffff0000000000000000000000000000000000000000000000000000000082169050919050565b612a3881612a03565b8114612a4357600080fd5b50565b600081359050612a5581612a2f565b92915050565b600060208284031215612a7157612a706129f9565b5b6000612a7f84828501612a46565b91505092915050565b60008115159050919050565b612a9d81612a88565b82525050565b6000602082019050612ab86000830184612a94565b92915050565b600081519050919050565b600082825260208201905092915050565b60005b83811015612af8578082015181840152602081019050612add565b83811115612b07576000848401525b50505050565b6000601f19601f8301169050919050565b6000612b2982612abe565b612b338185612ac9565b9350612b43818560208601612ada565b612b4c81612b0d565b840191505092915050565b60006020820190508181036000830152612b718184612b1e565b905092915050565b6000819050919050565b612b8c81612b79565b8114612b9757600080fd5b50565b600081359050612ba981612b83565b92915050565b600060208284031215612bc557612bc46129f9565b5b6000612bd384828501612b9a565b91505092915050565b600073ffffffffffffffffffffffffffffffffffffffff82169050919050565b6000612c0782612bdc565b9050919050565b612c1781612bfc565b82525050565b6000602082019050612c326000830184612c0e565b92915050565b612c4181612bfc565b8114612c4c57600080fd5b50565b600081359050612c5e81612c38565b92915050565b60008060408385031215612c7b57612c7a6129f9565b5b6000612c8985828601612c4f565b9250506020612c9a85828601612b9a565b9150509250929050565b600080fd5b600080fd5b600080fd5b60008083601f840112612cc957612cc8612ca4565b5b8235905067ffffffffffffffff811115612ce657612ce5612ca9565b5b602083019150836001820283011115612d0257612d01612cae565b5b9250929050565b60008060208385031215612d2057612d1f6129f9565b5b600083013567ffffffffffffffff811115612d3e57612d3d6129fe565b5b612d4a85828601612cb3565b92509250509250929050565b600080600060608486031215612d6f57612d6e6129f9565b5b6000612d7d86828701612c4f565b9350506020612d8e86828701612c4f565b9250506040612d9f86828701612b9a565b9150509250925092565b600080fd5b7f4e487b7100000000000000000000000000000000000000000000000000000000600052604160045260246000fd5b612de682612b0d565b810181811067ffffffffffffffff82111715612e0557612e04612dae565b5b80604052505050565b6000612e186129ef565b9050612e248282612ddd565b919050565b600067ffffffffffffffff821115612e4457612e43612dae565b5b612e4d82612b0d565b9050602081019050919050565b82818337600083830152505050565b6000612e7c612e7784612e29565b612e0e565b905082815260208101848484011115612e9857612e97612da9565b5b612ea3848285612e5a565b509392505050565b600082601f830112612ec057612ebf612ca4565b5b8135612ed0848260208601612e69565b91505092915050565b600060208284031215612eef57612eee6129f9565b5b600082013567ffffffffffffffff811115612f0d57612f0c6129fe565b5b612f1984828501612eab565b91505092915050565b612f2b81612b79565b82525050565b6000602082019050612f466000830184612f22565b92915050565b600060208284031215612f6257612f616129f9565b5b6000612f7084828501612c4f565b91505092915050565b612f8281612a88565b8114612f8d57600080fd5b50565b600081359050612f9f81612f79565b92915050565b60008060408385031215612fbc57612fbb6129f9565b5b6000612fca85828601612c4f565b9250506020612fdb85828601612f90565b9150509250929050565b600067ffffffffffffffff82111561300057612fff612dae565b5b61300982612b0d565b9050602081019050919050565b600061302961302484612fe5565b612e0e565b90508281526020810184848401111561304557613044612da9565b5b613050848285612e5a565b509392505050565b600082601f83011261306d5761306c612ca4565b5b813561307d848260208601613016565b91505092915050565b600080600080608085870312156130a05761309f6129f9565b5b60006130ae87828801612c4f565b94505060206130bf87828801612c4f565b93505060406130d087828801612b9a565b925050606085013567ffffffffffffffff8111156130f1576130f06129fe565b5b6130fd87828801613058565b91505092959194509250565b60008060008060408587031215613123576131226129f9565b5b600085013567ffffffffffffffff811115613141576131406129fe565b5b61314d87828801612cb3565b9450945050602085013567ffffffffffffffff8111156131705761316f6129fe565b5b61317c87828801612cb3565b925092505092959194509250565b600080604083850312156131a1576131a06129f9565b5b60006131af85828601612c4f565b92505060206131c085828601612c4f565b9150509250929050565b7f4e487b7100000000000000000000000000000000000000000000000000000000600052602260045260246000fd5b6000600282049050600182168061321157607f821691505b60208210811415613225576132246131ca565b5b50919050565b7f4552433732313a20617070726f76656420717565727920666f72206e6f6e657860008201527f697374656e7420746f6b656e0000000000000000000000000000000000000000602082015250565b6000613287602c83612ac9565b91506132928261322b565b604082019050919050565b600060208201905081810360008301526132b68161327a565b9050919050565b7f4552433732313a20617070726f76616c20746f2063757272656e74206f776e6560008201527f7200000000000000000000000000000000000000000000000000000000000000602082015250565b6000613319602183612ac9565b9150613324826132bd565b604082019050919050565b600060208201905081810360008301526133488161330c565b9050919050565b7f4552433732313a20617070726f76652063616c6c6572206973206e6f74206f7760008201527f6e6572206e6f7220617070726f76656420666f7220616c6c0000000000000000602082015250565b60006133ab603883612ac9565b91506133b68261334f565b604082019050919050565b600060208201905081810360008301526133da8161339e565b9050919050565b600081905092915050565b60006133f883856133e1565b9350613405838584612e5a565b82840190509392505050565b600061341e8284866133ec565b91508190509392505050565b7f4552433732313a207472616e736665722063616c6c6572206973206e6f74206f60008201527f776e6572206e6f7220617070726f766564000000000000000000000000000000602082015250565b6000613486603183612ac9565b91506134918261342a565b604082019050919050565b600060208201905081810360008301526134b581613479565b9050919050565b7f4c656e676874206f6620746865206e616d652073686f756c64206265203e3100600082015250565b60006134f2601f83612ac9565b91506134fd826134bc565b602082019050919050565b60006020820190508181036000830152613521816134e5565b9050919050565b7f4552433732313a206f776e657220717565727920666f72206e6f6e657869737460008201527f656e7420746f6b656e0000000000000000000000000000000000000000000000602082015250565b6000613584602983612ac9565b915061358f82613528565b604082019050919050565b600060208201905081810360008301526135b381613577565b9050919050565b7f4552433732313a2062616c616e636520717565727920666f7220746865207a6560008201527f726f206164647265737300000000000000000000000000000000000000000000602082015250565b6000613616602a83612ac9565b9150613621826135ba565b604082019050919050565b6000602082019050818103600083015261364581613609565b9050919050565b7f4f6e6c7920646f6d61696e206f776e65722063616e207365742074686520726560008201527f636f726473000000000000000000000000000000000000000000000000000000602082015250565b60006136a8602583612ac9565b91506136b38261364c565b604082019050919050565b600060208201905081810360008301526136d78161369b565b9050919050565b7f45524337323155524953746f726167653a2055524920717565727920666f722060008201527f6e6f6e6578697374656e7420746f6b656e000000000000000000000000000000602082015250565b600061373a603183612ac9565b9150613745826136de565b604082019050919050565b600060208201905081810360008301526137698161372d565b9050919050565b600061377b82612abe565b61378581856133e1565b9350613795818560208601612ada565b80840191505092915050565b60006137ad8285613770565b91506137b98284613770565b91508190509392505050565b7f446f6d61696e206e616d6520697320616c726561647920726567697374657264600082015250565b60006137fb602083612ac9565b9150613806826137c5565b602082019050919050565b6000602082019050818103600083015261382a816137ee565b9050919050565b7f4e6f7420656e6f756768206d6174696320706169640000000000000000000000600082015250565b6000613867601583612ac9565b915061387282613831565b602082019050919050565b600060208201905081810360008301526138968161385a565b9050919050565b7f2e00000000000000000000000000000000000000000000000000000000000000600082015250565b60006138d36001836133e1565b91506138de8261389d565b600182019050919050565b60008190508160005260206000209050919050565b6000815461390b816131f9565b61391581866133e1565b94506001821660008114613930576001811461394157613974565b60ff19831686528186019350613974565b61394a856138e9565b60005b8381101561396c5781548189015260018201915060208101905061394d565b838801955050505b50505092915050565b600061398a8285876133ec565b9150613995826138c6565b91506139a182846138fe565b9150819050949350505050565b60006139ba82866138fe565b91506139c68285613770565b91506139d282846138fe565b9150819050949350505050565b7f7b226e616d65223a202200000000000000000000000000000000000000000000600082015250565b6000613a15600a836133e1565b9150613a20826139df565b600a82019050919050565b7f222c20226465736372697074696f6e223a20224120646f6d61696e206f6e207460008201527f6865204e696e6a61206e616d652073657276696365222c2022696d616765223a60208201527f2022646174613a696d6167652f7376672b786d6c3b6261736536342c00000000604082015250565b6000613aad605c836133e1565b9150613ab882613a2b565b605c82019050919050565b7f222c226c656e677468223a220000000000000000000000000000000000000000600082015250565b6000613af9600c836133e1565b9150613b0482613ac3565b600c82019050919050565b7f227d000000000000000000000000000000000000000000000000000000000000600082015250565b6000613b456002836133e1565b9150613b5082613b0f565b600282019050919050565b6000613b6682613a08565b9150613b728286613770565b9150613b7d82613aa0565b9150613b898285613770565b9150613b9482613aec565b9150613ba08284613770565b9150613bab82613b38565b9150819050949350505050565b7f646174613a6170706c69636174696f6e2f6a736f6e3b6261736536342c000000600082015250565b6000613bee601d836133e1565b9150613bf982613bb8565b601d82019050919050565b6000613c0f82613be1565b9150613c1b8284613770565b915081905092915050565b60006040820190508181036000830152613c408185612b1e565b90508181036020830152613c548184612b1e565b90509392505050565b7f4552433732313a206f70657261746f7220717565727920666f72206e6f6e657860008201527f697374656e7420746f6b656e0000000000000000000000000000000000000000602082015250565b6000613cb9602c83612ac9565b9150613cc482613c5d565b604082019050919050565b60006020820190508181036000830152613ce881613cac565b9050919050565b7f4552433732313a207472616e736665722066726f6d20696e636f72726563742060008201527f6f776e6572000000000000000000000000000000000000000000000000000000602082015250565b6000613d4b602583612ac9565b9150613d5682613cef565b604082019050919050565b60006020820190508181036000830152613d7a81613d3e565b9050919050565b7f4552433732313a207472616e7366657220746f20746865207a65726f2061646460008201527f7265737300000000000000000000000000000000000000000000000000000000602082015250565b6000613ddd602483612ac9565b9150613de882613d81565b604082019050919050565b60006020820190508181036000830152613e0c81613dd0565b9050919050565b7f4e487b7100000000000000000000000000000000000000000000000000000000600052601160045260246000fd5b6000613e4d82612b79565b9150613e5883612b79565b925082821015613e6b57613e6a613e13565b5b828203905092915050565b6000613e8182612b79565b9150613e8c83612b79565b9250827fffffffffffffffffffffffffffffffffffffffffffffffffffffffffffffffff03821115613ec157613ec0613e13565b5b828201905092915050565b7f4e487b7100000000000000000000000000000000000000000000000000000000600052603260045260246000fd5b6000613f0682612b79565b91507fffffffffffffffffffffffffffffffffffffffffffffffffffffffffffffffff821415613f3957613f38613e13565b5b600182019050919050565b7f4552433732313a20617070726f766520746f2063616c6c657200000000000000600082015250565b6000613f7a601983612ac9565b9150613f8582613f44565b602082019050919050565b60006020820190508181036000830152613fa981613f6d565b9050919050565b7f4552433732313a207472616e7366657220746f206e6f6e20455243373231526560008201527f63656976657220696d706c656d656e7465720000000000000000000000000000602082015250565b600061400c603283612ac9565b915061401782613fb0565b604082019050919050565b6000602082019050818103600083015261403b81613fff565b9050919050565b7f4552433732314d657461646174613a2055524920717565727920666f72206e6f60008201527f6e6578697374656e7420746f6b656e0000000000000000000000000000000000602082015250565b600061409e602f83612ac9565b91506140a982614042565b604082019050919050565b600060208201905081810360008301526140cd81614091565b9050919050565b7f4e487b7100000000000000000000000000000000000000000000000000000000600052601260045260246000fd5b600061410e82612b79565b915061411983612b79565b925082614129576141286140d4565b5b828204905092915050565b600061413f82612b79565b915061414a83612b79565b92508261415a576141596140d4565b5b828206905092915050565b6000606082019050818103600083015261417f8186612b1e565b905081810360208301526141938185612b1e565b90506141a26040830184612f22565b949350505050565b60006141b582612b79565b91506141c083612b79565b9250817fffffffffffffffffffffffffffffffffffffffffffffffffffffffffffffffff04831182151516156141f9576141f8613e13565b5b828202905092915050565b7f45524337323155524953746f726167653a2055524920736574206f66206e6f6e60008201527f6578697374656e7420746f6b656e000000000000000000000000000000000000602082015250565b6000614260602e83612ac9565b915061426b82614204565b604082019050919050565b6000602082019050818103600083015261428f81614253565b9050919050565b600060408201905081810360008301526142b08185612b1e565b90506142bf6020830184612c0e565b9392505050565b600081519050919050565b600082825260208201905092915050565b60006142ed826142c6565b6142f781856142d1565b9350614307818560208601612ada565b61431081612b0d565b840191505092915050565b60006080820190506143306000830187612c0e565b61433d6020830186612c0e565b61434a6040830185612f22565b818103606083015261435c81846142e2565b905095945050505050565b60008151905061437681612a2f565b92915050565b600060208284031215614392576143916129f9565b5b60006143a084828501614367565b91505092915050565b7f4552433732313a206d696e7420746f20746865207a65726f2061646472657373600082015250565b60006143df602083612ac9565b91506143ea826143a9565b602082019050919050565b6000602082019050818103600083015261440e816143d2565b9050919050565b7f4552433732313a20746f6b656e20616c7265616479206d696e74656400000000600082015250565b600061444b601c83612ac9565b915061445682614415565b602082019050919050565b6000602082019050818103600083015261447a8161443e565b905091905056fe0a2d2d2d2d2d2d2d2d2d2d2d2d2d2d2d2d2d2d2d2d2d2d2d2d2d2d2d2d2d2d2d2d2d2d2d2d2d2d2d2d2d2d2d2d2d2d2d2d2d2d2d2d2d2d2d2d2d2d2d2d2d2d2d2d2d2d2d2d2d2d2d2d2d2d2d2d2d2d2d2d2d2d2d2d2d2d2d2d2d2d2d2d2d2d2d2d2d2d2d2d2d2d2d2d2d2d2d2d2d2d2d2d0a4142434445464748494a4b4c4d4e4f505152535455565758595a6162636465666768696a6b6c6d6e6f707172737475767778797a303132333435363738392b2f5265676973746572696e6720257320206f6e2074686520636f6e7472616374207769746820746f6b656e4964202564a2646970667358221220a8563d265d2196e7226d79f791a57c3f458c3ee305b1c6c2b51dde249005a39c64736f6c634300080a00333c73766720786d6c6e733d22687474703a2f2f7777772e77332e6f72672f323030302f737667222077696474683d2232373022206865696768743d22323730222066696c6c3d226e6f6e65223e3c706174682066696c6c3d2275726c282342292220643d224d302030683237307632373048307a222f3e3c646566733e3c66696c7465722069643d22412220636f6c6f722d696e746572706f6c6174696f6e2d66696c746572733d2273524742222066696c746572556e6974733d227573657253706163654f6e55736522206865696768743d22323730222077696474683d22323730223e3c666544726f70536861646f772064783d2230222064793d22312220737464446576696174696f6e3d22322220666c6f6f642d6f7061636974793d222e323235222077696474683d223230302522206865696768743d2232303025222f3e3c2f66696c7465723e3c2f646566733e3c7061746820643d224d37322e3836332034322e393439632d2e3636382d2e3338372d312e3432362d2e35392d322e3139372d2e3539732d312e3532392e3230342d322e3139372e35396c2d31302e30383120362e3033322d362e383520332e3933342d31302e30383120362e303332632d2e3636382e3338372d312e3432362e35392d322e3139372e3539732d312e3532392d2e3230342d322e3139372d2e35396c2d382e3031332d342e37323161342e353220342e35322030203020312d312e3538392d312e363136632d2e3338342d2e3636352d2e3539342d312e3431382d2e3630382d322e313837762d392e3331632d2e3031332d2e3737352e3138352d312e3533382e3537322d322e32303861342e323520342e323520302030203120312e3632352d312e3539356c372e3838342d342e3539632e3636382d2e33383720312e3432362d2e353920322e3139372d2e353973312e3532392e32303420322e3139372e35396c372e38383420342e353961342e353220342e353220302030203120312e35383920312e363136632e3338342e3636352e35393420312e3431382e36303820322e31383776362e3033326c362e38352d342e303635762d362e303332632e3031332d2e3737352d2e3138352d312e3533382d2e3537322d322e32303861342e323520342e32352030203020302d312e3632352d312e3539354c34312e3435362032342e3539632d2e3636382d2e3338372d312e3432362d2e35392d322e3139372d2e3539732d312e3532392e3230342d322e3139372e35396c2d31342e38363420382e36353561342e323520342e32352030203020302d312e36323520312e353935632d2e3338372e36372d2e35383520312e3433342d2e35373220322e3230387631372e343431632d2e3031332e3737352e31383520312e3533382e35373220322e32303861342e323520342e323520302030203020312e36323520312e3539356c31342e38363420382e363535632e3636382e33383720312e3432362e353920322e3139372e353973312e3532392d2e32303420322e3139372d2e35396c31302e3038312d352e39303120362e38352d342e3036352031302e3038312d352e393031632e3636382d2e33383720312e3432362d2e353920322e3139372d2e353973312e3532392e32303420322e3139372e35396c372e38383420342e353961342e353220342e353220302030203120312e35383920312e363136632e3338342e3636352e35393420312e3431382e36303820322e31383776392e333131632e3031332e3737352d2e31383520312e3533382d2e35373220322e32303861342e323520342e32352030203020312d312e36323520312e3539356c2d372e38383420342e373231632d2e3636382e3338372d312e3432362e35392d322e3139372e3539732d312e3532392d2e3230342d322e3139372d2e35396c2d372e3838342d342e353961342e353220342e35322030203020312d312e3538392d312e363136632d2e3338352d2e3636352d2e3539342d312e3431382d2e3630382d322e313837762d362e3033326c2d362e383520342e30363576362e303332632d2e3031332e3737352e31383520312e3533382e35373220322e32303861342e323520342e323520302030203020312e36323520312e3539356c31342e38363420382e363535632e3636382e33383720312e3432362e353920322e3139372e353973312e3532392d2e32303420322e3139372d2e35396c31342e3836342d382e363535632e3635372d2e33393420312e3230342d2e393520312e3538392d312e363136732e3539342d312e3431382e3630392d322e3138375635352e353338632e3031332d2e3737352d2e3138352d312e3533382d2e3537322d322e32303861342e323520342e32352030203020302d312e3632352d312e3539356c2d31342e3939332d382e3738367a222066696c6c3d2223666666222f3e3c646566733e3c6c696e6561724772616469656e742069643d2242222078313d2230222079313d2230222078323d22323730222079323d2232373022206772616469656e74556e6974733d227573657253706163654f6e557365223e3c73746f702073746f702d636f6c6f723d2223636235656565222f3e3c73746f70206f66667365743d2231222073746f702d636f6c6f723d2223306364376534222073746f702d6f7061636974793d222e3939222f3e3c2f6c696e6561724772616469656e743e3c2f646566733e3c7465787420783d2233322e352220793d223233312220666f6e742d73697a653d223238222066696c6c3d2223666666222066696c7465723d2275726c282341292220666f6e742d66616d696c793d22506c7573204a616b617274612053616e732c44656a6156752053616e732c4e6f746f20436f6c6f7220456d6f6a692c4170706c6520436f6c6f7220456d6f6a692c73616e732d73657269662220666f6e742d7765696768743d22626f6c64223e",
  "linkReferences": {},
  "deployedLinkReferences": {}
}